{
  "contractName": "ZenexToken",
  "abi": [
    {
      "constant": true,
      "inputs": [],
      "name": "totalSupply",
      "outputs": [
        {
          "name": "",
          "type": "uint256"
        }
      ],
      "payable": false,
      "stateMutability": "view",
      "type": "function"
    },
    {
      "inputs": [],
      "payable": false,
      "stateMutability": "nonpayable",
      "type": "constructor"
    }
  ],
  "bytecode": "0x6080604052348015600f57600080fd5b50620f4240600081905550607b806100286000396000f3fe6080604052348015600f57600080fd5b506004361060285760003560e01c806318160ddd14602d575b600080fd5b60336049565b6040518082815260200191505060405180910390f35b6000548156fea165627a7a723058201710e6cf3f54bdb684fe561d2224ae133ea13887b4db5dd4e12ae3e2910bd49e0029",
  "source": "pragma solidity >=0.4.21 <0.6.0;\n\ncontract ZenexToken {\n\n  uint256 public totalSupply;  \n  constructor() public {\n    totalSupply = 1000000;\n  }\n\n}",
  "sourcePath": "/Volumes/Drive/Workshops/Blockchain/dapps/token_sale/contracts/ZenexToken.sol",
  "compiler": {
    "name": "solc",
    "version": "0.5.8+commit.23d335f2.Emscripten.clang"
  },
  "schemaVersion": "3.0.11",
  "updatedAt": "2019-07-10T03:18:47.634Z",
  "devdoc": {
    "methods": {}
  },
  "userdoc": {
    "methods": {}
  }
}